{
  "contractName": "TweetStream",
  "abi": [
    {
      "anonymous": false,
      "inputs": [
        {
          "indexed": false,
          "name": "message",
          "type": "bytes32"
        },
        {
          "indexed": false,
          "name": "mood",
          "type": "bytes8"
        },
        {
          "indexed": false,
          "name": "name",
          "type": "bytes32"
        }
      ],
      "name": "newTweet",
      "type": "event"
    },
    {
      "anonymous": false,
      "inputs": [
        {
          "indexed": false,
          "name": "name",
          "type": "bytes32"
        },
        {
          "indexed": false,
          "name": "account",
          "type": "address"
        }
      ],
      "name": "newUser",
      "type": "event"
    },
    {
      "constant": false,
      "inputs": [
        {
          "name": "name",
          "type": "bytes32"
        }
      ],
      "name": "register",
      "outputs": [],
      "payable": false,
      "stateMutability": "nonpayable",
      "type": "function"
    },
    {
      "constant": true,
      "inputs": [
        {
          "name": "account",
          "type": "address"
        }
      ],
      "name": "getUserName",
      "outputs": [
        {
          "name": "name",
          "type": "bytes32"
        }
      ],
      "payable": false,
      "stateMutability": "view",
      "type": "function"
    },
    {
      "constant": false,
      "inputs": [
        {
          "name": "message",
          "type": "bytes32"
        },
        {
          "name": "mood",
          "type": "bytes8"
        }
      ],
      "name": "tweet",
      "outputs": [],
      "payable": false,
      "stateMutability": "nonpayable",
      "type": "function"
    }
  ],
  "bytecode": "0x608060405234801561001057600080fd5b506104ce806100206000396000f300608060405260043610610057576000357c0100000000000000000000000000000000000000000000000000000000900463ffffffff1680635aa978a41461005c578063d84f55ee146100b2578063e1fa8e8414610111575b600080fd5b34801561006857600080fd5b506100b06004803603810190808035600019169060200190929190803577ffffffffffffffffffffffffffffffffffffffffffffffff19169060200190929190505050610142565b005b3480156100be57600080fd5b506100f3600480360381019080803573ffffffffffffffffffffffffffffffffffffffff169060200190929190505050610349565b60405180826000191660001916815260200191505060405180910390f35b34801561011d57600080fd5b506101406004803603810190808035600019169060200190929190505050610391565b005b600060010261015033610349565b600019161415151561016157600080fd5b6001606060405190810160405280846000191681526020018377ffffffffffffffffffffffffffffffffffffffffffffffff191681526020013373ffffffffffffffffffffffffffffffffffffffff16815250908060018154018082558091505090600182039060005260206000209060020201600090919290919091506000820151816000019060001916905560208201518160010160006101000a81548167ffffffffffffffff021916908378010000000000000000000000000000000000000000000000009004021790555060408201518160010160086101000a81548173ffffffffffffffffffffffffffffffffffffffff021916908373ffffffffffffffffffffffffffffffffffffffff1602179055505050507f612f5a2748b602b63ff6035ff31c0acfb418c7a55518eff2c3dc96cdd2e9e79c82826000803373ffffffffffffffffffffffffffffffffffffffff1673ffffffffffffffffffffffffffffffffffffffff168152602001908152602001600020546040518084600019166000191681526020018377ffffffffffffffffffffffffffffffffffffffffffffffff191677ffffffffffffffffffffffffffffffffffffffffffffffff191681526020018260001916600019168152602001935050505060405180910390a15050565b60008060008373ffffffffffffffffffffffffffffffffffffffff1673ffffffffffffffffffffffffffffffffffffffff168152602001908152602001600020549050919050565b60006001026000803373ffffffffffffffffffffffffffffffffffffffff1673ffffffffffffffffffffffffffffffffffffffff16815260200190815260200160002054600019161415156103e557600080fd5b806000803373ffffffffffffffffffffffffffffffffffffffff1673ffffffffffffffffffffffffffffffffffffffff16815260200190815260200160002081600019169055507f211fb0910a7f83c7105b64dda182b2d56e7a2bb8d947a766e68a13365f9a005c81336040518083600019166000191681526020018273ffffffffffffffffffffffffffffffffffffffff1673ffffffffffffffffffffffffffffffffffffffff1681526020019250505060405180910390a1505600a165627a7a72305820b014b45a16fa862cfa2ac2d425ff7abc1bf520355c0d3baeb18e4cc86176319e0029",
  "source": "pragma solidity ^0.4.24;\n\ncontract TweetStream {\n\n    event newTweet(bytes32 message, bytes8 mood, bytes32 name);\n    event newUser(bytes32 name, address account);\n\n    struct Tweet {\n        bytes32 message;\n        bytes8 mood;\n        address from;\n    }\n\n    mapping(address => bytes32) users;\n    Tweet[] tweets;\n\n    function register(bytes32 name) public {\n        require(users[msg.sender] == 0x0);\n        users[msg.sender] = name;\n        emit newUser(name,msg.sender);\n    }\n\n    function getUserName(address account) public view returns (bytes32 name){\n        return users[account];\n    }\n\n    function tweet(bytes32 message,bytes8 mood) public {\n        require(getUserName(msg.sender) != 0x0);\n        tweets.push(Tweet(message,mood,msg.sender));\n        emit newTweet(message,mood,users[msg.sender]);\n    }\n\n}\n",
  "sourcePath": "/Users/jedsada/Documents/development/tweet-stream/contracts/TweetStream.sol",
  "compiler": {
    "name": "solc",
    "version": "0.4.24+commit.e67f0147.Emscripten.clang"
  },
  "schemaVersion": "2.0.1",
  "updatedAt": "2018-09-14T17:42:33.876Z"
}